:1000000000308A00C42800003230840083130008C6
:10001000031918280130F800F701F70B0D28F80B29
:100020000C284A30F700F70B13281628800B0A28F3
:1000300008003308F8013202031821283208F700BB
:100040002D28F7010830B400B20DF70D3308770200
:100050000318F700F80DB40B24280800B301320888
:10006000330203183C28B4013408313C031C3A28FD
:10007000B40A3428B30A2F280800B1013108313CF2
:10008000031C90282A08B2000A30B300192078080F
:10009000AC002A08B2000A30B30019207708AB0080
:1000A00020302C07840083130008B2008800061556
:1000B0000A30B2002E20061120302B078400831353
:1000C0000008B200880086150A30B2002E20861182
:1000D0002D08B2000A30B30019207808AF002D08AF
:1000E000B2000A30B30019207708AE0020302F0785
:1000F000840083130008B200880006140A30B2009E
:100100002E20061020302E07840083130008B20032
:10011000880086140A30B2002E208610B10A3E28CC
:1001200008008519C1280430B100FA30B20004205B
:10013000B10B9528851D9A28B0080319A128003015
:10014000A2280130B000B008031DB4280230B1006D
:10015000FA30B2000420B10BA828071487168711C3
:10016000071287100711C1280230B100FA30B2001F
:100170000420B10BB62887150715071087128710C2
:1001800007128A110A12CF2903081F398300B00110
:1001900083161F149F141F159F1107309C00831393
:1001A000C0308312A000F930A100A430A200B0300A
:1001B000A3009930A4009230A5008230A600F83048
:1001C000A7008030A8009030A90000308316880076
:1001D000FF30860000308700FF30850083128800E2
:1001E00007108712871007118711071205184D296C
:1001F0006430B200042005184D292330AA001E30B7
:10020000AD00003083168600831207108712871016
:100210000715871507123D20AA03AD03AD08031D7E
:1002200001290530AA00AD00003083168600831234
:100230008710871207100715871107163D20AA039C
:10024000AD03AD08031D14291E30AA002330AD00F4
:100250000030831686008312071187110714871058
:10026000071287163D20AA03AD03AA08031D2829FB
:100270000530AD00AA0000308316860083120711F6
:10028000071207108714871187163D20AA03AD03B4
:10029000AA08031D3B29FD28FB288518A4296430E2
:1002A000B20004208518A4293C30AA003730AD00E4
:1002B00000308316860083120710871287100715F7
:1002C000871507123D20AA03AD03AD08031D582969
:1002D0000530AA00AD000030831686008312871017
:1002E000871207100715871107163D20AA03AD03D3
:1002F000AD08031D6B293730AA003C30AD0000303B
:1003000083168600831207118711071487100712BE
:1003100087163D20AA03AD03AA08031D7F290530D7
:10032000AD00AA0000308316860083120711071261
:1003300007108714871187163D20AA03AD03AA086A
:10034000031D9229542952290519CE296430B2007F
:1003500004200519CE290230B100FA30B200042081
:10036000B10BAD29071687140710071187118712E3
:100370000430B100FA30B2000420B10BBA290712E0
:10038000871007118711071087120230B100FA3069
:10039000B2000420B10BC729AB29A9299128F6285E
:0203A0006300F8
:02400E00733FFE
:00000001FF
;PIC16F877A
;CRC=A080  CREATED="29-Dec-24 10:19"
